{
    "_format": "hh-sol-artifact-1",
    "contractName": "Web3Forms",
    "sourceName": "contracts/Web3Forms.sol",
    "abi": [
        {
            "inputs": [],
            "stateMutability": "nonpayable",
            "type": "constructor"
        },
        {
            "inputs": [
                {
                    "internalType": "string",
                    "name": "_formData",
                    "type": "string"
                }
            ],
            "name": "createTheForm",
            "outputs": [],
            "stateMutability": "nonpayable",
            "type": "function"
        },
        {
            "inputs": [
                {
                    "internalType": "string",
                    "name": "_formData",
                    "type": "string"
                },
                {
                    "internalType": "uint256",
                    "name": "_formId",
                    "type": "uint256"
                }
            ],
            "name": "fillTheForm",
            "outputs": [],
            "stateMutability": "nonpayable",
            "type": "function"
        },
        {
            "inputs": [
                {
                    "internalType": "uint256",
                    "name": "",
                    "type": "uint256"
                }
            ],
            "name": "formIdentifier",
            "outputs": [
                {
                    "internalType": "uint256",
                    "name": "formId",
                    "type": "uint256"
                },
                {
                    "internalType": "address",
                    "name": "creator",
                    "type": "address"
                },
                {
                    "internalType": "uint256",
                    "name": "publishedTime",
                    "type": "uint256"
                },
                {
                    "internalType": "string",
                    "name": "formData",
                    "type": "string"
                },
                {
                    "internalType": "uint256",
                    "name": "numberOfResponses",
                    "type": "uint256"
                }
            ],
            "stateMutability": "view",
            "type": "function"
        },
        {
            "inputs": [
                {
                    "internalType": "uint256",
                    "name": "_formId",
                    "type": "uint256"
                }
            ],
            "name": "isTheFormFilled",
            "outputs": [
                {
                    "internalType": "bool",
                    "name": "",
                    "type": "bool"
                }
            ],
            "stateMutability": "view",
            "type": "function"
        },
        {
            "inputs": [
                {
                    "internalType": "uint256",
                    "name": "_formId",
                    "type": "uint256"
                }
            ],
            "name": "myResponses",
            "outputs": [
                {
                    "components": [
                        {
                            "internalType": "uint256",
                            "name": "formId",
                            "type": "uint256"
                        },
                        {
                            "internalType": "address",
                            "name": "creator",
                            "type": "address"
                        },
                        {
                            "internalType": "uint256",
                            "name": "publishedTime",
                            "type": "uint256"
                        },
                        {
                            "internalType": "string",
                            "name": "formData",
                            "type": "string"
                        },
                        {
                            "internalType": "uint256",
                            "name": "numberOfResponses",
                            "type": "uint256"
                        }
                    ],
                    "internalType": "struct Web3Forms.Form",
                    "name": "",
                    "type": "tuple"
                }
            ],
            "stateMutability": "view",
            "type": "function"
        },
        {
            "inputs": [
                {
                    "internalType": "address",
                    "name": "",
                    "type": "address"
                },
                {
                    "internalType": "uint256",
                    "name": "",
                    "type": "uint256"
                }
            ],
            "name": "numberOfFormsFilled",
            "outputs": [
                {
                    "internalType": "uint256",
                    "name": "formId",
                    "type": "uint256"
                },
                {
                    "internalType": "address",
                    "name": "creator",
                    "type": "address"
                },
                {
                    "internalType": "uint256",
                    "name": "publishedTime",
                    "type": "uint256"
                },
                {
                    "internalType": "string",
                    "name": "formData",
                    "type": "string"
                },
                {
                    "internalType": "uint256",
                    "name": "numberOfResponses",
                    "type": "uint256"
                }
            ],
            "stateMutability": "view",
            "type": "function"
        },
        {
            "inputs": [],
            "name": "s_owner",
            "outputs": [
                {
                    "internalType": "address",
                    "name": "",
                    "type": "address"
                }
            ],
            "stateMutability": "view",
            "type": "function"
        }
    ],
    "bytecode": "0x608060405234801561001057600080fd5b5033600160006101000a81548173ffffffffffffffffffffffffffffffffffffffff021916908373ffffffffffffffffffffffffffffffffffffffff1602179055506114a3806100616000396000f3fe608060405234801561001057600080fd5b506004361061007d5760003560e01c806385850f3a1161005b57806385850f3a14610106578063a32e55fb14610136578063e397824014610152578063ec287815146101705761007d565b80632feee0e514610082578063378065581461009e57806351f8d69a146100d2575b600080fd5b61009c60048036038101906100979190610eac565b6101a0565b005b6100b860048036038101906100b39190610f89565b6103a3565b6040516100c995949392919061106f565b60405180910390f35b6100ec60048036038101906100e791906110c9565b61049e565b6040516100fd95949392919061106f565b60405180910390f35b610120600480360381019061011b91906110c9565b61057c565b60405161012d9190611111565b60405180910390f35b610150600480360381019061014b919061112c565b610777565b005b61015a6109b4565b6040516101679190611188565b60405180910390f35b61018a600480360381019061018591906110c9565b6109da565b6040516101979190611281565b60405180910390f35b600160009054906101000a900473ffffffffffffffffffffffffffffffffffffffff1673ffffffffffffffffffffffffffffffffffffffff163373ffffffffffffffffffffffffffffffffffffffff16146101fa57600080fd5b60006040518060a0016040528060005481526020013373ffffffffffffffffffffffffffffffffffffffff1681526020014281526020018381526020016000815250905060028190806001815401808255809150506001900390600052602060002090600502016000909190919091506000820151816000015560208201518160010160006101000a81548173ffffffffffffffffffffffffffffffffffffffff021916908373ffffffffffffffffffffffffffffffffffffffff1602179055506040820151816002015560608201518160030190805190602001906102e1929190610c6a565b506080820151816004015550508060046000805481526020019081526020016000206000820151816000015560208201518160010160006101000a81548173ffffffffffffffffffffffffffffffffffffffff021916908373ffffffffffffffffffffffffffffffffffffffff16021790555060408201518160020155606082015181600301908051906020019061037a929190610c6a565b506080820151816004015590505060008081548092919061039a906112d2565b91905055505050565b600360205281600052604060002081815481106103bf57600080fd5b9060005260206000209060050201600091509150508060000154908060010160009054906101000a900473ffffffffffffffffffffffffffffffffffffffff16908060020154908060030180546104159061134a565b80601f01602080910402602001604051908101604052809291908181526020018280546104419061134a565b801561048e5780601f106104635761010080835404028352916020019161048e565b820191906000526020600020905b81548152906001019060200180831161047157829003601f168201915b5050505050908060040154905085565b60046020528060005260406000206000915090508060000154908060010160009054906101000a900473ffffffffffffffffffffffffffffffffffffffff16908060020154908060030180546104f39061134a565b80601f016020809104026020016040519081016040528092919081815260200182805461051f9061134a565b801561056c5780601f106105415761010080835404028352916020019161056c565b820191906000526020600020905b81548152906001019060200180831161054f57829003601f168201915b5050505050908060040154905085565b600080600090506000600360003373ffffffffffffffffffffffffffffffffffffffff1673ffffffffffffffffffffffffffffffffffffffff168152602001908152602001600020805480602002602001604051908101604052809291908181526020016000905b8282101561071c57838290600052602060002090600502016040518060a0016040529081600082015481526020016001820160009054906101000a900473ffffffffffffffffffffffffffffffffffffffff1673ffffffffffffffffffffffffffffffffffffffff1673ffffffffffffffffffffffffffffffffffffffff168152602001600282015481526020016003820180546106819061134a565b80601f01602080910402602001604051908101604052809291908181526020018280546106ad9061134a565b80156106fa5780601f106106cf576101008083540402835291602001916106fa565b820191906000526020600020905b8154815290600101906020018083116106dd57829003601f168201915b50505050508152602001600482015481525050815260200190600101906105e4565b50505050905060005b815181101561076c57848282815181106107425761074161137c565b5b602002602001015160000151141561075957600192505b8080610764906112d2565b915050610725565b508192505050919050565b6000600460008381526020019081526020016000206040518060a0016040529081600082015481526020016001820160009054906101000a900473ffffffffffffffffffffffffffffffffffffffff1673ffffffffffffffffffffffffffffffffffffffff1673ffffffffffffffffffffffffffffffffffffffff168152602001600282015481526020016003820180546108119061134a565b80601f016020809104026020016040519081016040528092919081815260200182805461083d9061134a565b801561088a5780601f1061085f5761010080835404028352916020019161088a565b820191906000526020600020905b81548152906001019060200180831161086d57829003601f168201915b5050505050815260200160048201548152505090508281606001819052506001816080018181516108bb91906113ab565b91508181525050600360003373ffffffffffffffffffffffffffffffffffffffff1673ffffffffffffffffffffffffffffffffffffffff1681526020019081526020016000208190806001815401808255809150506001900390600052602060002090600502016000909190919091506000820151816000015560208201518160010160006101000a81548173ffffffffffffffffffffffffffffffffffffffff021916908373ffffffffffffffffffffffffffffffffffffffff1602179055506040820151816002015560608201518160030190805190602001906109a2929190610c6a565b50608082015181600401555050505050565b600160009054906101000a900473ffffffffffffffffffffffffffffffffffffffff1681565b6109e2610cf0565b60006109ed8361057c565b905080610a2f576040517f08c379a0000000000000000000000000000000000000000000000000000000008152600401610a269061144d565b60405180910390fd5b610a37610cf0565b6000600360003373ffffffffffffffffffffffffffffffffffffffff1673ffffffffffffffffffffffffffffffffffffffff168152602001908152602001600020805480602002602001604051908101604052809291908181526020016000905b82821015610bd057838290600052602060002090600502016040518060a0016040529081600082015481526020016001820160009054906101000a900473ffffffffffffffffffffffffffffffffffffffff1673ffffffffffffffffffffffffffffffffffffffff1673ffffffffffffffffffffffffffffffffffffffff16815260200160028201548152602001600382018054610b359061134a565b80601f0160208091040260200160405190810160405280929190818152602001828054610b619061134a565b8015610bae5780601f10610b8357610100808354040283529160200191610bae565b820191906000526020600020905b815481529060010190602001808311610b9157829003601f168201915b5050505050815260200160048201548152505081526020019060010190610a98565b50505050905080600081518110610bea57610be961137c565b5b6020026020010151602001515060005b8151811015610c5e5785828281518110610c1757610c1661137c565b5b6020026020010151600001511415610c4b57818181518110610c3c57610c3b61137c565b5b60200260200101519250610c5e565b8080610c56906112d2565b915050610bfa565b50819350505050919050565b828054610c769061134a565b90600052602060002090601f016020900481019282610c985760008555610cdf565b82601f10610cb157805160ff1916838001178555610cdf565b82800160010185558215610cdf579182015b82811115610cde578251825591602001919060010190610cc3565b5b509050610cec9190610d35565b5090565b6040518060a0016040528060008152602001600073ffffffffffffffffffffffffffffffffffffffff1681526020016000815260200160608152602001600081525090565b5b80821115610d4e576000816000905550600101610d36565b5090565b6000604051905090565b600080fd5b600080fd5b600080fd5b600080fd5b6000601f19601f8301169050919050565b7f4e487b7100000000000000000000000000000000000000000000000000000000600052604160045260246000fd5b610db982610d70565b810181811067ffffffffffffffff82111715610dd857610dd7610d81565b5b80604052505050565b6000610deb610d52565b9050610df78282610db0565b919050565b600067ffffffffffffffff821115610e1757610e16610d81565b5b610e2082610d70565b9050602081019050919050565b82818337600083830152505050565b6000610e4f610e4a84610dfc565b610de1565b905082815260208101848484011115610e6b57610e6a610d6b565b5b610e76848285610e2d565b509392505050565b600082601f830112610e9357610e92610d66565b5b8135610ea3848260208601610e3c565b91505092915050565b600060208284031215610ec257610ec1610d5c565b5b600082013567ffffffffffffffff811115610ee057610edf610d61565b5b610eec84828501610e7e565b91505092915050565b600073ffffffffffffffffffffffffffffffffffffffff82169050919050565b6000610f2082610ef5565b9050919050565b610f3081610f15565b8114610f3b57600080fd5b50565b600081359050610f4d81610f27565b92915050565b6000819050919050565b610f6681610f53565b8114610f7157600080fd5b50565b600081359050610f8381610f5d565b92915050565b60008060408385031215610fa057610f9f610d5c565b5b6000610fae85828601610f3e565b9250506020610fbf85828601610f74565b9150509250929050565b610fd281610f53565b82525050565b610fe181610f15565b82525050565b600081519050919050565b600082825260208201905092915050565b60005b83811015611021578082015181840152602081019050611006565b83811115611030576000848401525b50505050565b600061104182610fe7565b61104b8185610ff2565b935061105b818560208601611003565b61106481610d70565b840191505092915050565b600060a0820190506110846000830188610fc9565b6110916020830187610fd8565b61109e6040830186610fc9565b81810360608301526110b08185611036565b90506110bf6080830184610fc9565b9695505050505050565b6000602082840312156110df576110de610d5c565b5b60006110ed84828501610f74565b91505092915050565b60008115159050919050565b61110b816110f6565b82525050565b60006020820190506111266000830184611102565b92915050565b6000806040838503121561114357611142610d5c565b5b600083013567ffffffffffffffff81111561116157611160610d61565b5b61116d85828601610e7e565b925050602061117e85828601610f74565b9150509250929050565b600060208201905061119d6000830184610fd8565b92915050565b6111ac81610f53565b82525050565b6111bb81610f15565b82525050565b600082825260208201905092915050565b60006111dd82610fe7565b6111e781856111c1565b93506111f7818560208601611003565b61120081610d70565b840191505092915050565b600060a08301600083015161122360008601826111a3565b50602083015161123660208601826111b2565b50604083015161124960408601826111a3565b506060830151848203606086015261126182826111d2565b915050608083015161127660808601826111a3565b508091505092915050565b6000602082019050818103600083015261129b818461120b565b905092915050565b7f4e487b7100000000000000000000000000000000000000000000000000000000600052601160045260246000fd5b60006112dd82610f53565b91507fffffffffffffffffffffffffffffffffffffffffffffffffffffffffffffffff8214156113105761130f6112a3565b5b600182019050919050565b7f4e487b7100000000000000000000000000000000000000000000000000000000600052602260045260246000fd5b6000600282049050600182168061136257607f821691505b602082108114156113765761137561131b565b5b50919050565b7f4e487b7100000000000000000000000000000000000000000000000000000000600052603260045260246000fd5b60006113b682610f53565b91506113c183610f53565b9250827fffffffffffffffffffffffffffffffffffffffffffffffffffffffffffffffff038211156113f6576113f56112a3565b5b828201905092915050565b7f596f7520686176656e27742066696c6c6564207468697320666f726d00000000600082015250565b6000611437601c83610ff2565b915061144282611401565b602082019050919050565b600060208201905081810360008301526114668161142a565b905091905056fea2646970667358221220cd9b0d4d4cb67c21588d9de25fe65d1a25995d215147d2efda00081faa852a9864736f6c63430008090033",
    "linkReferences": {},
    "deployedLinkReferences": {}
}